:020000040000FA
:100000000C9434000C9475010C9463010C94510011
:100010000C9451000C9451000C9451000C9451001C
:100020000C9451000C9451000C9451000C9451000C
:100030000C9451000C9451000C9451000C945100FC
:100040000C9414010C9451000C9451000C94510028
:100050000C9451000C9451000C9451000C945100DC
:100060000C9451000C94510011241FBECFEFD8E026
:10007000DEBFCDBF11E0A0E0B1E0ECE8FCE002C0E3
:1000800005900D92A43FB107D9F722E0A4EFB1E0AB
:1000900001C01D92A732B207E1F70E9487010C94BC
:1000A00044060C9400002D9A08952C9A08959BB153
:1000B00021E030E001C0220F8A95EAF7922B9BB92C
:1000C00008959B012F5E3F4FFB014191BF01FC0151
:1000D0004193CF0162177307B9F708952B982898B9
:1000E00027E030E090E02898AC01022E02C0559540
:1000F00047950A94E2F740FF07C0299A289A2150B1
:10010000310988F72B9A08952998F8CF8093260211
:100110002A98289827E030E090E02898AC01022E39
:1001200002C0559547950A94E2F740FF07C0299A07
:10013000289A2150310988F72A9A08952998F8CFEA
:100140008091260280610C94860080912602806452
:100150000C948600809126028F7B0C9486008091FF
:1001600026028F770C948600809126028F7E0C9455
:100170008600809126028F7D0C9486005F980895FA
:1001800087E00E9457002FEF80E792E021508040E7
:100190009040E1F700C000005F9808955D985E9878
:1001A0000E946E0086E00E9457008FE39FE1019756
:1001B000F1F700C000005E980895CF93C82F85E046
:1001C0000E9457005E988C2F0E946E0086E00E946D
:1001D00057008FE39FE10197F1F700C000005E98A0
:1001E000CF910895CF93DF9380EC0E94CE00C5E1BC
:1001F000D2E089910E94DD0082E0C532D807C9F7BC
:10020000DF91CF910895CF93DF9380E80E94CE00D5
:10021000C4E0D2E089910E94DD0082E0C431D807B9
:10022000C9F7DF91CF9108951F920F920FB60F92E9
:1002300011242F933F934F935F936F937F938F93EB
:100240009F93AF93BF93EF93FF9382EB86BD809113
:10025000F601811134C08091F701882331F081507B
:100260008093F70183E68093F6018091F401811178
:1002700028C080910302882389F081508093030273
:1002800083E68093F40180910302811107C080917D
:10029000F401811103C088E00E94CE00FF91EF912C
:1002A000BF91AF919F918F917F916F915F914F918E
:1002B0003F912F910F900FBE0F901F901895815076
:1002C000D2CF8150DECF1F920F920FB60F92112422
:1002D0008F9382E08093F8018FE08093F7018F91F4
:1002E0000F900FBE0F901F9018951F920F920FB690
:1002F0000F9211248F9383E08093F80185E080931F
:10030000F7018F910F900FBE0F901F9018958FB728
:1003100080688FBF84B18F6384B987B1807C87B9CF
:100320008FEF88B98AB1806E8AB984E18093030225
:100330008CE00E94CE0088E30E94CE002FEF87EA77
:1003400091E6215080409040E1F700C0000065E058
:1003500071E084E092E00E94610066E171E085E175
:1003600092E00E9461000E9403010E94F200EFEF00
:10037000F3ED20E3E150F0402040E1F700C0000041
:1003800067E271E085E192E00E9461000E94F20064
:100390008FEF99E6E8E181509040E040E1F700C03E
:1003A00000008AE08093690083E08DBB8CBB1092D3
:1003B000680068E371E085E192E00E9461000E94BC
:1003C000F200FFEF29E688E1F15020408040E1F79C
:1003D00000C0000014BC85E085BD82EB86BD17BC63
:1003E00018BC81E080936E0069E471E085E192E0E1
:1003F0000E9461000E94F20087E00E9457009FEF78
:10040000E0E7F2E09150E040F040E1F700C000008A
:100410000E94BE002FEF83EC99E021508040904075
:10042000E1F700C0000003E082E0F82ED1E096E0A2
:10043000892E25E0E22E14E039E0732E48E0642E88
:1004400057E0B52E64E0C62E61E0D62E7EE1972EF1
:10045000EAE0AE2EFFE05F2E80912602982F9F608B
:10046000909326028E7F8E600E948600E5E0EA95DA
:10047000F1F700008091F80181111CC03099AEC0E5
:100480008FE99FE00197F1F700C00000309BFECF9D
:100490000E94C0008091F501E82FF0E0E050FF4F8E
:1004A000D0838F5F8093F5018091F501853011F441
:1004B0001092F50180912602982F9F60909326025A
:1004C0008D7F8D600E94860095E09A95F1F700007F
:1004D0008091F80181111CC03099A8C0EFE9FFE0BC
:1004E0003197F1F700C00000309BFECF0E94C000A2
:1004F0008091F501E82FF0E0E050FF4F10838F5F0F
:100500008093F5018091F501853011F41092F50189
:1005100080912602982F9F60909326028B7F8B609C
:100520000E948600F5E0FA95F1F700008091F8014D
:1005300081111CC03099A2C08FE99FE00197F1F7AB
:1005400000C00000309BFECF0E94C0008091F501EA
:10055000E82FF0E0E050FF4FB0828F5F8093F5010D
:100560008091F501853011F41092F50180912602F9
:10057000982F9F6090932602877F87600E94860055
:1005800095E09A95F1F700008091F801811114C06F
:1005900030999CC0EFE9FFE03197F1F700C000000F
:1005A000309BFECF0E94C0001092F5018091F501B2
:1005B000853011F41092F501E091F801E83008F06F
:1005C000E6C0F0E0EA51FD4F0C943E06B403BD03D3
:1005D00020043A04510482049504A904319912C0FC
:1005E000EFE9FFE03197F1F700C00000319BFECF4B
:1005F0000E94C0008091F501E82FF0E0E050FF4F2D
:10060000F0824FCF329950CF8FE99FE00197F1F7F9
:1006100000C00000329BFECF0E94C0008091F50117
:10062000E82FF0E0E050FF4F00833BCF319912C03C
:100630008FE99FE00197F1F700C00000319BFECFEA
:100640000E94C0008091F501E82FF0E0E050FF4FDC
:10065000E08255CF329956CFEFE9FFE03197F1F7BD
:1006600000C00000329BFECF0E94C0008091F501C7
:10067000E82FF0E0E050FF4F808241CF319912C067
:10068000EFE9FFE03197F1F700C00000319BFECFAA
:100690000E94C0008091F501E82FF0E0E050FF4F8C
:1006A00060825BCF32995CCF8FE99FE00197F1F7D1
:1006B00000C00000329BFECF0E94C0008091F50177
:1006C000E82FF0E0E050FF4F708247CF319915C01E
:1006D0008FE99FE00197F1F700C00000319BFECF4A
:1006E0000E94C0008091F501E82FF0E0E050FF4F3C
:1006F00010828F5F8093F50159CF329957CFEFE980
:10070000FFE03197F1F700C00000329BFECF83E796
:100710000E94DD0080910202843009F447CF80916D
:10072000F5018430A9F41092F50184E30E94DD0004
:10073000E0E0F1E0A9EFB1E091918D91981336CF0F
:10074000CE16DF06C9F71093F8019092F7012ECF6D
:100750008091F801823009F429CF1092F501D093ED
:10076000F8010093F70122CF80910202811102C0AB
:10077000B092F8010E94BE005AC08091F60190919B
:10078000F70191114EC081114CC01092F801809177
:100790002602982F9F60909326028E7F8E600E9483
:1007A000860095E09A95F1F700003399E4C0EFE9EF
:1007B000FFE03197F1F700C00000339BFECF0E94AD
:1007C000C000C1E380910401882309F49AC110920A
:1007D0000401CEEFA09203028CE00E94CE00809133
:1007E0000202811199C165E071E084E092E00E940B
:1007F00061006AE571E085E192E00E9461000E947B
:1008000003010E94F200C13309F07FC1D0930202BC
:10081000D09304016BE671E085E192E00E946100F3
:100820001BCE823308F0A6CF87E00E9457000E94BB
:10083000AA000E94AF000E94B4000E94B90016C036
:100840008091F701811105C08091F601882309F498
:100850009CCF0E94BE000E94AA000E94AF000E948E
:10086000B4008091260280620E9486000E9455009A
:100870002D988DCF8091F701811105C08091F601EF
:10088000882309F482CF0E94BE000E94A5000E9426
:10089000AF000E94A0000E94B9002C980E94530053
:1008A00076CF8091F6019091F701911115C08111D9
:1008B00013C087E00E945700FFEF23ED80E3F15063
:1008C00020408040E1F700C000000E94BE00E0929E
:1008D000F8015092F7015BCF6A2D0E94320680FF2B
:1008E0000AC087E00E9457000E94A5000E94A00055
:1008F0000E94AF00A2CF0E94BE000E94AA000E94E8
:10090000B400F6CF8091F701811105C08091F60106
:10091000882309F43ACF0E94BE000E94A50080916E
:10092000260280680E948600B4CF87E00E945700AC
:100930000E94A5008091260280680E9486000E9485
:10094000A0008091260280620E9486000E945500CD
:10095000A5CF0E94BE000E94A5000E94AF000E9489
:10096000B4000E94B9002C980E94530080910202AA
:1009700081110BCF0CCF34990CC08FE99FE0019708
:10098000F1F700C00000349BFECF0E94C000C2E31C
:1009900019CF35990CC0EFE9FFE03197F1F700C0AE
:1009A0000000359BFECF0E94C000C3E30BCF8091B7
:1009B0002602982F9F60909326028D7F8D600E9463
:1009C0008600F5E0FA95F1F7000033990CC08FE945
:1009D0009FE00197F1F700C00000339BFECF0E941B
:1009E000C000C4E3EFCE34990CC0EFE9FFE03197CB
:1009F000F1F700C00000349BFECF0E94C000C5E3A9
:100A0000E1CE35990CC08FE99FE00197F1F700C066
:100A10000000359BFECF0E94C000C6E3D3CE80917C
:100A20002602982F9F60909326028B7F8B600E94F6
:100A3000860095E09A95F1F7000033990CC0EFE934
:100A4000FFE03197F1F700C00000339BFECF0E941A
:100A5000C000C7E3B7CE34990CC08FE99FE001977F
:100A6000F1F700C00000349BFECF0E94C000C8E335
:100A7000A9CE35990CC0EFE9FFE03197F1F700C03E
:100A80000000359BFECF0E94C000C9E39BCE809141
:100A90002602982F9F6090932602877F87600E948E
:100AA0008600F5E0FA95F1F7000033990CC08FE964
:100AB0009FE00197F1F700C00000339BFECF0E943A
:100AC000C000CAE27FCE34990CC0EFE9FFE0319755
:100AD000F1F700C00000349BFECF0E94C000C0E3CD
:100AE00071CE35990CC08FE99FE00197F1F700C0F6
:100AF0000000359BFECF0E94C000C3E263CECFEF63
:100B000061CECF3F09F066CEA7CCC23309F0A4CCAA
:100B100088E00E94CE00A0CC813009F060C08FE058
:100B20000E94CE006CE771E084E092E00E946100D8
:100B300090ED9C0F9A30B0F580910102282F30E0A3
:100B4000843021F0F901EB5EFD4FC38723503E4F07
:100B5000F90190838F5F853011F1809301028091BC
:100B6000F901805D809310028091FA01805D80938D
:100B700011028091FB01805D809312028091FC0143
:100B8000805D809313020E9403010E94F200CA322A
:100B900009F062CCF0920202D09304015DCC109275
:100BA0000102DDCFC332D9F6809101028430B9F65B
:100BB0006BE671E085E192E00E9461008091FD01A9
:100BC0008093F9018091FE018093FA018091FF01E9
:100BD0008093FB01809100028093FC01C0CF8230A2
:100BE000C9F46DE871E084E092E00E9461006EE972
:100BF00071E085E192E00E9461000E9403010E9481
:100C0000F200C13309F402CEC23309F025CC0093BF
:100C10000202C2CF8330B1F46FEA71E084E092E067
:100C20000E94610060EC71E085E192E00E94610049
:100C30000E9403010E94F200C33209F0A8CF109372
:100C40000202AACF843009F007CC61ED71E084E0A4
:100C500092E00E94610062EE71E085E192E00E9404
:100C6000610091CF991B79E004C0991F961708F095
:100C7000961B881F7A95C9F780950895EE0FFF1F80
:100C80000590F491E02D0994F894FFCF0101010142
:100C90000120496E697469616C697A6174696F6E6B
:100CA0002000496E6974204C43442073756363656A
:100CB00073730050696E436F6E6669675375636343
:100CC00065737300496E74657272757074537563E1
:100CD0006365737300496E697454696D6572537509
:100CE000636365737300312E496E69742020202080
:100CF00020322E4F666600456E74657220636F6405
:100D0000653A2020202020004163746976652063C5
:100D10006F64653A20202020002020202020204DD4
:100D2000656E7520202020202000312E45646974D6
:100D30002020322E53747269637400202053747221
:100D4000696374206D6F646520202000436F6E66B8
:100D500069726D2070726573732023200020205308
:100D6000545249435420204D4F44452020002D2DFE
:100D70002D2D2D2D2D2D2D2D2D2D2D2D2D2D0000FD
:107E0000112484B714BE81FFF0D085E080938100F7
:107E100082E08093C00088E18093C10086E0809377
:107E2000C20080E18093C4008EE0C9D0259A86E02C
:107E300020E33CEF91E0309385002093840096BBD3
:107E4000B09BFECF1D9AA8958150A9F7CC24DD24C4
:107E500088248394B5E0AB2EA1E19A2EF3E0BF2EE7
:107E6000A2D0813461F49FD0082FAFD0023811F036
:107E7000013811F484E001C083E08DD089C08234E0
:107E800011F484E103C0853419F485E0A6D080C0E4
:107E9000853579F488D0E82EFF2485D0082F10E0AE
:107EA000102F00270E291F29000F111F8ED06801E7
:107EB0006FC0863521F484E090D080E0DECF843638
:107EC00009F040C070D06FD0082F6DD080E0C81688
:107ED00080E7D80618F4F601B7BEE895C0E0D1E017
:107EE00062D089930C17E1F7F0E0CF16F0E7DF06D8
:107EF00018F0F601B7BEE89568D007B600FCFDCFD4
:107F0000A601A0E0B1E02C9130E011968C91119780
:107F100090E0982F8827822B932B1296FA010C0160
:107F200087BEE89511244E5F5F4FF1E0A038BF0790
:107F300051F7F601A7BEE89507B600FCFDCF97BE46
:107F4000E89526C08437B1F42ED02DD0F82E2BD052
:107F50003CD0F601EF2C8F010F5F1F4F84911BD097
:107F6000EA94F801C1F70894C11CD11CFA94CF0C13
:107F7000D11C0EC0853739F428D08EE10CD085E9AC
:107F80000AD08FE07ACF813511F488E018D01DD067
:107F900080E101D065CF982F8091C00085FFFCCF94
:107FA0009093C60008958091C00087FFFCCF809118
:107FB000C00084FD01C0A8958091C6000895E0E648
:107FC000F0E098E1908380830895EDDF803219F02E
:107FD00088E0F5DFFFCF84E1DECF1F93182FE3DFCA
:107FE0001150E9F7F2DF1F91089580E0E8DFEE27F6
:047FF000FF270994CA
:027FFE00040479
:00000001FF
