:100000000C9434000C9407010C94DC000C94510007
:100010000C9451000C9451000C9451000C9451001C
:100020000C9451000C9451000C9451000C9451000C
:100030000C9451000C9451000C9451000C945100FC
:100040000C94BE000C9451000C9451000C9451007F
:100050000C9451000C9451000C9451000C945100DC
:100060000C9451000C94510011241FBECFEFD8E026
:10007000DEBFCDBF11E0A0E0B1E0E8E3F7E002C0F1
:1000800005900D92A430B107D9F721E0A4E0B1E0CA
:1000900001C01D92A930B207E1F70E9432010C9411
:1000A0009A030C9400002C9A08952B98289827E026
:1000B00030E090E02898AC01022E02C0559547959B
:1000C0000A94E2F740FF07C0299A289A2150310983
:1000D00088F72B9A08952998F8CF809308012A98D9
:1000E000289827E030E090E02898AC01022E02C06A
:1000F000559547950A94E2F740FF07C0299A289A38
:100100002150310988F72A9A08952998F8CF8091CB
:10011000080180610C946D008091080180640C944A
:100120006D00809108018F7B0C946D008091080117
:100130008F770C946D00809108018F7E0C946D0078
:10014000809108018F7D0C946D005F9A2FEF81EEF6
:1001500094E0215080409040E1F700C000005F989B
:1001600008955D9A5E980E9455005E9A8FE39FE124
:100170000197F1F700C000005E9808951F920F925A
:100180000FB60F9211248F9382EB86BD80910401EC
:10019000811110C080910501882331F08150809336
:1001A000050183E6809304018F910F900FBE0F909D
:1001B0001F9018958150F6CF1F920F920FB60F9295
:1001C00011242F933F934F935F936F937F938F935C
:1001D0009F93AF93BF93EF93FF9382E080930601C9
:1001E0008FE08093050181E30E94B100FF91EF91C0
:1001F000BF91AF919F918F917F916F915F914F913F
:100200003F912F910F900FBE0F901F9018951F9246
:100210000F920FB60F9211242F933F934F935F933A
:100220006F937F938F939F93AF93BF93EF93FF93BE
:1002300083E08093060185E08093050180E30E94BE
:10024000B100FF91EF91BF91AF919F918F917F91FD
:100250006F915F914F913F912F910F900FBE0F9033
:100260001F9018958FB780688FBF84B18F6384B952
:1002700087B1807C87B98FEF88B98AB1806E8AB9DF
:100280008AE08093690083E08DBB8CBB109268008C
:1002900014BC85E085BD82EB86BD17BC18BC81E02F
:1002A00080936E005D985E988CE00E9455005E9A87
:1002B0008FE39FE10197F1F700C000005E9889E7A6
:1002C0000E94B100C3E0D2E011E006E035E0F32E79
:1002D00044E0E42E59E0D52E63E0C62EBB24B3944F
:1002E00075E0A72E88E0982E97E0892E2EE1722ED9
:1002F00080910801982F9F60909308018E7F8E60F7
:100300000E946D0095E09A95F1F70000339B02C0C2
:10031000349986B18091060181111CC03099AEC01C
:100320008FE99FE00197F1F700C00000309BFECFFE
:100330000E94A50080910701E82FF0E0E050FF4FF8
:1003400010838F5F8093070180910701853011F43E
:1003500010920701809108018D7F0E946D0095E049
:100360009A95F1F70000339B02C0349986B18091D1
:10037000060181111CC03099A9C08FE99FE0019747
:10038000F1F700C00000309BFECF0E94A5008091D5
:100390000701E82FF0E0E050FF4FE0828F5F80938D
:1003A000070180910701853011F4109207018091B7
:1003B00008018B7F0E946D0095E09A95F1F700008F
:1003C000339B02C0349986B18091060181111CC013
:1003D0003099A4C08FE99FE00197F1F700C00000B9
:1003E000309BFECF0E94A50080910701E82FF0E02E
:1003F000E050FF4F80828F5F80930701809107015B
:10040000853011F41092070180910801877F0E94C6
:100410006D0095E09A95F1F70000339B02C0349986
:1004200086B180910601811114C030999FC08FE977
:100430009FE00197F1F700C00000309BFECF0E94C3
:10044000A5001092070180910701853011F41092E8
:100450000701809107010E945500E0910601E730F5
:1004600008F046CFF0E0E95CFD4F0C9494031503CF
:10047000FE0217032F03430364037603319912C06E
:100480008FE99FE00197F1F700C00000319BFECF9C
:100490000E94A50080910701E82FF0E0E050FF4F97
:1004A000D0834FCF329950CF8FE99FE00197F1F77A
:1004B00000C00000329BFECF0E94A5008091070182
:1004C000E82FF0E0E050FF4FC0833BCF319912C0DE
:1004D0008FE99FE00197F1F700C00000319BFECF4C
:1004E0000E94A50080910701E82FF0E0E050FF4F47
:1004F000F08254CF329955CF8FE99FE00197F1F701
:1005000000C00000329BFECF0E94A5008091070131
:10051000E82FF0E0E050FF4F008340CF319912C048
:100520008FE99FE00197F1F700C00000319BFECFFB
:100530000E94A50080910701E82FF0E0E050FF4FF6
:10054000908259CF32995ACF8FE99FE00197F1F706
:1005500000C00000329BFECF0E94A50080910701E1
:10056000E82FF0E0E050FF4FD08245CF319915C021
:100570008FE99FE00197F1F700C00000319BFECFAB
:100580000E94A50080910701E82FF0E0E050FF4FA6
:1005900010828F5F8093070156CF329954CF8FE935
:1005A0009FE00197F1F700C00000329BFECF83E788
:1005B0000E94B1006090070194E010920701691257
:1005C00018C084E30E94B1008091000181113BCFEB
:1005D00080910101811137CF80910201811133CFC8
:1005E0008091030181112FCF609206017092050165
:1005F0002ACFB0920601C092050125CF8091040157
:1006000090910501911105C0811103C0109206015E
:1006100069CE823350F45F9A0E9491000E94960046
:100620000E949B000E94A00016C05F98F5CF8091A9
:100630000501811104C080910401882339F35F987A
:100640000E9491000E9496000E949B0080910801E8
:1006500080620E946D000E9453002D9843CE8091CD
:100660000501811104C080910401882379F25F980B
:100670000E948C000E9496000E9487000E94A000A9
:100680002C982D9A2FCE8091040190910501911103
:1006900008C0811106C0A09206018FE08093050179
:1006A00021CE6AE00E94880380FF08C05F9A0E9402
:1006B0008C000E9487000E949600B4CF5F980E9431
:1006C00091000E949B00F7CF80910501811105C028
:1006D00080910401882309F499CF5F980E948C00CF
:1006E0008091080180680E946D00C6CF5F9A0E94C9
:1006F0008C008091080180680E946D000E94870034
:100700008091080180620E946D000E945300B9CF61
:10071000991B79E004C0991F961708F0961B881F53
:100720007A95C9F780950895EE0FFF1F0590F49113
:08073000E02D0994F894FFCFBD
:0407380001010101B9
:00000001FF
