:100000000C9434000C9482010C9470010C945100F7
:100010000C9451000C9451000C9451000C9451001C
:100020000C9451000C9451000C9451000C9451000C
:100030000C9451000C9451000C9451000C945100FC
:100040000C941E010C9451000C9451000C9451001E
:100050000C9451000C9451000C9451000C945100DC
:100060000C9451000C94510011241FBECFEFD8E026
:10007000DEBFCDBF12E0A0E0B1E0E6E1FFE002C0EC
:1000800005900D92AC37B107D9F722E0ACE7B2E0AA
:1000900001C01D92A13BB207E1F70E9494010C94AC
:1000A00089070C9400002D9A08952C9A08959BB10D
:1000B00021E030E001C0220F8A95EAF7922B9BB92C
:1000C00008959B012F5E3F4FFB014191BF01FC0151
:1000D0004193CF0162177307B9F708952B982898B9
:1000E00027E030E090E02898AC01022E02C0559540
:1000F00047950A94E2F740FF07C0299A289A2150B1
:10010000310988F72B9A08952998F8CF8093B00287
:100110002A98289827E030E090E02898AC01022E39
:1001200002C0559547950A94E2F740FF07C0299A07
:10013000289A2150310988F72A9A08952998F8CFEA
:100140008091B00280620C9486008091B002806140
:100150000C9486008091B00280680C948600809197
:10016000B00280640C9486008091B0028F7B0C9466
:1001700086008091B0028F770C9486008091B00247
:100180008F7E0C9486008091B0028F7D0C94860047
:100190005F98089587E00E9457002FEF80E792E074
:1001A000215080409040E1F700C000005F98089522
:1001B0005D985E980E946E0086E00E9457008FE373
:1001C0009FE10197F1F700C000005E980895CF937A
:1001D000C82F85E00E9457005E988C2F0E946E0009
:1001E00086E00E9457008FE39FE10197F1F700C07E
:1001F00000005E98CF910895CF93DF9380EC0E942A
:10020000D800CFE9D2E089910E94E70082E0CF3A9E
:10021000D807C9F7DF91CF910895CF93DF9380E896
:100220000E94D800CEE8D2E089910E94E70082E0E7
:10023000CE39D807C9F7DF91CF9108951F920F9259
:100240000FB60F9211242F933F934F935F936F93A9
:100250007F938F939F93AF93BF93EF93FF9382EB23
:1002600086BD80917F02811137C0809180028823F2
:1002700049F081508093800281E080937E0283E682
:1002800080937F0280917C02811128C080918C0232
:10029000882389F0815080938C0283E680937C02CE
:1002A00080918C02811107C080917C02811103C072
:1002B00088E00E94D800FF91EF91BF91AF919F918C
:1002C0008F917F916F915F914F913F912F910F90FF
:1002D0000FBE0F901F9018958150D2CF8150DECF66
:1002E0001F920F920FB60F9211248F9382E080938A
:1002F00081028FE0809380028F910F900FBE0F904C
:100300001F9018951F920F920FB60F9211248F9382
:1003100083E08093810285E0809380028F910F902B
:100320000FBE0F901F9018958FB780688FBF84B154
:100330008F6384B987B1807C87B98FEF88B98AB120
:10034000806E8AB9589A84E180938C028CE00E9476
:10035000D80088E30E94D8002FEF87EA91E6215069
:1003600080409040E1F700C0000066E071E08EE858
:1003700092E00E94610067E171E08FE992E00E94E3
:1003800061000E940D010E94FC00EFEFF3ED20E3FD
:10039000E150F0402040E1F700C0000068E271E069
:1003A0008FE992E00E9461000E94FC008FEF99E6C5
:1003B000E8E181509040E040E1F700C000008AE0B1
:1003C0008093690083E08DBB8CBB1092680069E369
:1003D00071E08FE992E00E9461000E94FC00FFEF53
:1003E00029E688E1F15020408040E1F700C000009C
:1003F00014BC85E085BD82EB86BD17BC18BC81E0CE
:1004000080936E006AE471E08FE992E00E946100DF
:100410000E94FC0087E00E9457009FEFE0E7F2E0B7
:100420009150E040F040E1F700C000000E94C80099
:100430002FEF83EC99E0215080409040E1F700C01D
:10044000000053E0852E62E0762E6624639476E009
:10045000572EE5E04E2EF4E0FF2EA4E0AA2EA1E0F8
:10046000BA2E13E0B2E0EB2ED1E005E089E0382EA1
:1004700098E0292E27E0D22E3EE1932E43E3C42EAE
:100480008091B002982F9F609093B0028E7F8E6013
:100490000E948600E5E0EA95F1F700008091810274
:1004A00081111FC03099BAC0FFEF29EF80E0F150F1
:1004B00020408040E1F700C00000309BFECF0E944A
:1004C000CA0080917D02E82FF0E0E050FF4F60828B
:1004D0008F5F80937D0280917D02853011F41092B0
:1004E0007D028091B002982F9F609093B0028D7F23
:1004F0008D600E948600E5E0EA95F1F700008091AA
:10050000810281111FC03099B7C0FFEF29EF80E051
:10051000F15020408040E1F700C00000309BFECF4A
:100520000E94CA0080917D02E82FF0E0E050FF4F6A
:10053000F0828F5F80937D0280917D02853011F47F
:1005400010927D028091B002982F9F609093B0022C
:100550008B7F8B600E948600E5E0EA95F1F7000052
:100560008091810281111FC03099B4C0FFEF29EF43
:1005700080E0F15020408040E1F700C00000309B57
:10058000FECF0E94CA0080917D02E82FF0E0E0508B
:10059000FF4FD0828F5F80937D0280917D028530F6
:1005A00011F410927D028091B002982F9F60909379
:1005B000B002877F87600E948600E5E0EA95F1F748
:1005C000000080918102811117C03099B1C0FFEF06
:1005D00029EF80E0F15020408040E1F700C00000AA
:1005E000309BFECF0E94CA0010927D0280917D0256
:1005F000853011F410927D02E0918102E83008F01C
:100600002BC1F0E0EA5FFC4F0C948307190422042D
:1006100063047A04910400051F052D05319915C066
:100620009FEFE9EFF0E09150E040F040E1F700C0CB
:100630000000319BFECF0E94CA0080917D02E82F0E
:10064000F0E0E050FF4F708243CF329944CF2FEF5C
:1006500089EF90E0215080409040E1F700C0000019
:10066000329BFECF0E94CA0080917D02E82FF0E00D
:10067000E050FF4F80822CCF319915C09FEFE9EFFA
:10068000F0E09150E040F040E1F700C00000319B05
:10069000FECF0E94CA0080917D02E82FF0E0E0507A
:1006A000FF4F408246CF329947CF2FEF89EF90E03E
:1006B000215080409040E1F700C00000329BFECF07
:1006C0000E94CA0080917D02E82FF0E0E050FF4FC9
:1006D00050822FCF319915C09FEFE9EFF0E0915094
:1006E000E040F040E1F700C00000319BFECF0E94E7
:1006F000CA0080917D02E82FF0E0E050FF4F208299
:1007000049CF32994ACF2FEF89EF90E021508040B6
:100710009040E1F700C00000329BFECF0E94CA006B
:1007200080917D02E82FF0E0E050FF4F308232CF21
:10073000319918C09FEFE9EFF0E09150E040F040B0
:10074000E1F700C00000319BFECF0E94CA008091FB
:100750007D02E82FF0E0E050FF4F10828F5F809322
:100760007D0244CF329942CF2FEF89EF90E02150A4
:1007700080409040E1F700C00000329BFECF8091A6
:100780008D02843009F432CF80917D02843071F57E
:1007900010927D02E0E0F1E0A2E8B2E091918D914B
:1007A00098132ACFAE16BF06C9F7F0928102909235
:1007B0008002D0938B026AE572E08EE892E00E949C
:1007C0006100C0929B0290E390939C026BE672E002
:1007D0008FE992E00E94610000938C028CE00E94FD
:1007E000D8000E940D010E94FC0000CF8091810280
:1007F000823009F4FBCE10927D02D09381021093D7
:100800008002D0938B026BE571E08EE892E00E944B
:1008100061006CE671E08FE992E00E9461000E9445
:100820000D010E94FC008CE00E94D80010938C0205
:10083000DDCE80918D02811102C0D09281020E9492
:10084000C80038C080917F029091800291112DC024
:1008500081112BC0109281028091B002982F9F606D
:100860009093B0028E7F8E600E94860085E08A950C
:10087000F1F70000339903C19FEFE9EFF0E09150E9
:10088000E040F040E1F700C00000339BFECF0E9443
:10089000CA00C1E380910501882309F4D7C11092F1
:1008A0000501CEEF10928B02D4C1823340F687E06F
:1008B0000E9457000E94B4000E94B9000E94BE002E
:1008C0000E94C30013C080918002811105C08091F5
:1008D0007F02882309F4BECF0E94C8000E94B400A2
:1008E0000E94B9000E94BE000E94A0000E94550014
:1008F0002D98B2CF80918002811105C080917F0236
:10090000882309F4A7CF0E94C8000E94AF000E946C
:10091000B9000E94A5000E94C3002C980E945300B9
:100920009BCF00938C0280917F0290918002911165
:100930002BC0811129C087E00E945700EFEFF3ED33
:1009400020E3E150F0402040E1F700C000000E94A9
:10095000C800009381028FE08093800280938C0214
:100960006DE771E08EE892E00E9461006EE871E050
:100970008FE992E00E9461000E940D010E94FC003C
:100980008CE00E94D80068CF6AE00E94770780FF61
:100990002EC087E00E9457000E94AF000E94A50071
:1009A00080917E028823A9F08DE80E94D800809172
:1009B0008002CAE06C2F0E947707805D0E94E700EA
:1009C000809180026C2F0E94770780E3890F0E943C
:1009D000E70080918B02882339F080917F02823377
:1009E00068F488E00E94D8000E94B90069CF0E9494
:1009F000C8000E94B4000E94BE00D2CF8CE0F2CFAB
:100A000080918002811105C080917F02882309F4C2
:100A100021CF10938C0280918B02882339F0809132
:100A20007F02823350F48CE00E94D8000E94C800FC
:100A30000E94AF000E94AA006CCF88E0F5CF87E04B
:100A40000E9457000E94AF000E94AA000E94A500C9
:100A50000E94A0000E94550061CF0E94C8000E9421
:100A6000AF000E94B9000E94BE000E94C3002C98F3
:100A70000E94530080918D028111ECCEEDCE34990D
:100A80000FC02FEF89EF90E0215080409040E1F7B8
:100A900000C00000349BFECF0E94CA00C2E3FACE21
:100AA00035990FC0EFEFF9EF20E0E150F040204022
:100AB000E1F700C00000359BFECF0E94CA00C3E3EF
:100AC000E9CE8091B002982F9F609093B0028D7F05
:100AD0008D600E94860085E08A95F1F700003399C9
:100AE0000FC09FEFE9EFF0E09150E040F040E1F7F8
:100AF00000C00000339BFECF0E94CA00C4E3CACEF0
:100B000034990FC02FEF89EF90E021508040904042
:100B1000E1F700C00000349BFECF0E94CA00C5E38D
:100B2000B9CE35990FC0EFEFF9EF20E0E150F0407A
:100B30002040E1F700C00000359BFECF0E94CA00B4
:100B4000C6E3A8CE8091B002982F9F609093B00228
:100B50008B7F8B600E94860085E08A95F1F700000C
:100B600033990FC09FEFE9EFF0E09150E040F04083
:100B7000E1F700C00000339BFECF0E94CA00C7E32C
:100B800089CE34990FC02FEF89EF90E0215080403B
:100B90009040E1F700C00000349BFECF0E94CA00E5
:100BA000C8E378CE35990FC0EFEFF9EF20E0E150C0
:100BB000F0402040E1F700C00000359BFECF0E94CE
:100BC000CA00C9E367CE8091B002982F9F609093CE
:100BD000B002877F87600E94860085E08A95F1F7E2
:100BE000000033990FC09FEFE9EFF0E09150E04033
:100BF000F040E1F700C00000339BFECF0E94CA0026
:100C0000CAE248CE34990FC02FEF89EF90E021500F
:100C100080409040E1F700C00000349BFECF0E946E
:100C2000CA00C0E337CE35990FC0EFEFF9EF20E0EF
:100C3000E150F0402040E1F700C00000359BFECFBE
:100C40000E94CA00C3E226CECFEF24CECF3F09F0E8
:100C500029CE80918B02811129C0CF3F39F18AE0E2
:100C600080938C028CE00E94D80080918D028111CB
:100C700089C066E071E08EE892E00E9461006FE951
:100C800071E08FE992E00E9461000E940D010E94D4
:100C9000FC00C13309F06FC0D0938D02D0930501E1
:100CA00060EB71E08FE992E00E9461004899E8CB27
:100CB000FFEF23EC89E0F15020408040E1F700C0D5
:100CC00000008CE00E94D8008AE080938C0268E3E8
:100CD00072E08EE892E00E94610069E472E08FE9C0
:100CE00092E00E9461000E940D010E94FC000E949F
:100CF000AF000E94AA000E94A5000E94A0000E94CE
:100D000055009FEFE9E6F8E19150E040F040E1F74F
:100D100000C000000E9453002FEF89E698E12150A7
:100D200080409040E1F700C000002D98EFEFF3ED18
:100D300020E3E150F0402040E1F700C00000489976
:100D4000D1C087E00E9457008FE798E3E1E081502F
:100D50009040E040E1F700C000000E94C800FFE7BB
:100D60002BE888E0F15020408040E1F700C000000F
:100D7000E0928C02E4CFC23309F098CF88E00E9461
:100D8000D80094CF813009F062C0109204018FE046
:100D90000E94D80061EC71E08EE892E00E94610050
:100DA00090ED9C0F9A30B0F580918A02282F30E0A8
:100DB000843021F0F901E156FD4FC3872A573D4F9A
:100DC000F90190838F5F853011F180938A028091C1
:100DD0008202805D80939A0280918302805D80937D
:100DE0009B0280918402805D80939C0280918502A9
:100DF000805D80939D020E940D010E94FC00CA321A
:100E000009F054CFE0928D02D09305014FCF10929C
:100E10008A02DDCFC332D9F680918A028430B9F6D6
:100E200060EB71E08FE992E00E94610080918602A0
:100E3000809382028091870280938302809188024E
:100E4000809384028091890280938502C0CF823092
:100E500009F580910401882321F010928D02D0932E
:100E6000050162ED71E08EE892E00E94610063EEA0
:100E700071E08FE992E00E9461000E940D010E94E2
:100E8000FC00C13309F408CFC23309F00FCF10932F
:100E90008D02BACF8330B1F464EF71E08EE892E056
:100EA0000E94610065E072E08FE992E00E946100BB
:100EB0000E940D010E94FC00C33209F0A0CFF09205
:100EC0008D02A2CF843009F0F1CE66E172E08EE8A7
:100ED00092E00E94610067E272E08FE992E00E9476
:100EE000610089CFE0928D02D0930501BFCA991BA2
:100EF00079E004C0991F961708F0961B881F7A9511
:100F0000C9F780950895EE0FFF1F0590F491E02D2D
:060F10000994F894FFCFE4
:100F160001010101010120496E697469616C697AF8
:100F26006174696F6E2000496E6974204C434420D9
:100F3600737563636573730050696E436F6E66699C
:100F4600675375636365737300496E746572727572
:100F560070745375636365737300496E697454697D
:100F66006D65725375636365737300204E4F524D02
:100F7600414C20524551554553542000204C6F6337
:100F86006B206F7220756E6C6F636B2000202020C3
:100F9600444F4F52204641494C20212020005365A2
:100FA600637572697479206661696C6564200031C5
:100FB6002E496E69742020202020322E4F6666004E
:100FC600456E74657220636F64653A202020202088
:100FD6000041637469766520636F64653A2020205A
:100FE60020002020202020204D656E752020202006
:100FF600202000312E456469742020322E537472ED
:10100600696374002020537472696374206D6F6481
:101016006520202000436F6E6669726D20707265D0
:101026007373202320002020535452494354202018
:101036004D4F44452020002D2D2D2D2D2D2D2D2DB0
:101046002D2D2D2D2D2D2D002054455354204F5040
:1010560045524154494F4E2000206F6E6C792066F0
:101066006F72207465737420200020454D455247E9
:10107600454E43593A202020207300537769746304
:0C10860068546F4C6F636B206E6F770036
:00000001FF
