:100000000C9434000C949C020C947B020C945100D0
:100010000C9451000C9451000C9451000C9451001C
:100020000C9451000C9451000C9451000C9451000C
:100030000C9451000C9451000C9451000C945100FC
:100040000C9424020C9451000C9451000C94510017
:100050000C9451000C9451000C9451000C945100DC
:100060000C9451000C94510011241FBECFEFD8E026
:10007000DEBFCDBF14E0A0E0B1E0E4E4F7E102C0F0
:1000800005900D92A632B107D9F724E0A6E2B4E0BC
:1000900001C01D92A436B207E1F70E94BC020C9485
:1000A000A00B0C9400002D9A08952C9A08959BB1F2
:1000B00021E030E001C0220F8A95EAF7922B9BB92C
:1000C00008959B012F5E3F4FFB014191BF01FC0151
:1000D0004193CF0162177307B9F708952B982898B9
:1000E00027E030E090E02898AC01022E02C0559540
:1000F00047950A94E2F740FF07C0299A289A2150B1
:10010000310988F72B9A08952998F8CF80936304D2
:100110002A98289827E030E090E02898AC01022E39
:1001200002C0559547950A94E2F740FF07C0299A07
:10013000289A2150310988F72A9A08952998F8CFEA
:100140008091630480620C948600809163048061D6
:100150000C9486008091630480680C9486008091E2
:10016000630480640C948600809163048F7B0C94FC
:100170008600809163048F770C94860080916304DD
:100180008F7E0C948600809163048F7D0C94860092
:100190005F98089587E00E9457002FEF80E792E074
:1001A000215080409040E1F700C000005F98089522
:1001B00080916304982F9F60909363048E7F8E607C
:1001C0000E94860025E02A95F1F7000033990FC0C0
:1001D0008FEF99EF20E0815090402040E1F700C080
:1001E0000000339BFECF0E94CA0081E3089534993A
:1001F0000FC08FEF99EF20E0815090402040E1F751
:1002000000C00000349BFECF0E94CA0082E3089524
:1002100035990FC08FEF99EF20E08150904020403A
:10022000E1F700C00000359BFECF0E94CA0083E3C7
:10023000089580916304982F9F60909363048D7F4D
:100240008D600E94860085E08A95F1F70000339961
:100250000FC09FEF29EF80E0915020408040E1F7F0
:1002600000C00000339BFECF0E94CA0084E30895C3
:1002700034990FC09FEF29EF80E0915020408040DB
:10028000E1F700C00000349BFECF0E94CA0085E366
:10029000089535990FC09FEF29EF80E091502040DD
:1002A0008040E1F700C00000359BFECF0E94CA00ED
:1002B00086E3089580916304982F9F609093630470
:1002C0008B7F8B600E94860095E09A95F1F7000085
:1002D00033990FC02FEF89EF90E02150804090407C
:1002E000E1F700C00000339BFECF0E94CA0087E305
:1002F000089534990FC02FEF89EF90E0215080408E
:100300009040E1F700C00000349BFECF0E94CA007D
:1003100088E3089535990FC02FEF89EF90E02150C1
:1003200080409040E1F700C00000359BFECF0E9466
:10033000CA0089E3089580916304982F9F60909389
:100340006304877F87600E94860025E02A95F1F785
:10035000000033990FC08FEF99EF20E0815090405B
:100360002040E1F700C00000339BFECF0E94CA008E
:100370008AE2089534990FC08FEF99EF20E0815001
:1003800090402040E1F700C00000349BFECF0E9467
:10039000CA0080E3089535990FC08FEF99EF20E0F0
:1003A000815090402040E1F700C00000359BFECF17
:1003B0000E94CA0083E208958FEF08955D985E98C9
:1003C0000E946E0086E00E9457008FE39FE1019734
:1003D000F1F700C000005E980895CF93C82F85E024
:1003E0000E9457005E988C2F0E946E0086E00E944B
:1003F00057008FE39FE10197F1F700C000005E987E
:10040000CF910895CF93DF9380EC0E94DE01C2E587
:10041000D4E089910E94ED0184E0C236D807C9F783
:10042000DF91CF910895CF93DF9380E80E94DE01A2
:10043000C1E4D4E089910E94ED0184E0C135D80780
:10044000C9F7DF91CF9108951F920F920FB60F92C7
:1004500011242F933F934F935F936F937F938F93C9
:100460009F93AF93BF93EF93FF9393E696BD8091D5
:100470002C0481113AC080912D04882341F08150D1
:1004800080932D0481E080932B0490932C04809121
:10049000260481112EC080913F048823A9F0815049
:1004A00080933F0483E68093260480913F0481116A
:1004B0000BC080912604811107C080912E04811108
:1004C00003C088E00E94DE01FF91EF91BF91AF91E0
:1004D0009F918F917F916F915F914F913F912F915C
:1004E0000F900FBE0F901F901895815080932C0491
:1004F000CECF8150D8CF1F920F920FB60F921124FA
:100500008F939F9380912E04882351F081E08093F4
:100510002A049F918F910F900FBE0F901F901895F6
:1005200082E0809328049FE090932D048093400400
:1005300081E080930501EDCF1F920F920FB60F92CD
:1005400011248F9380912E04882349F081E08093B9
:1005500029048F910F900FBE0F901F90189583E084
:100560008093280485E080932D0482E080934004EA
:1005700081E080930501EDCF8FB780688FBF84B194
:100580008F6384B987B1807C87B98FEF88B98AB1CE
:10059000806E8AB98BB181618BB984E180933F040D
:1005A0008CE00E94DE0188E30E94DE012FEF87EAE3
:1005B00091E6215080409040E1F700C0000066E0E5
:1005C00071E081E494E00E94610067E171E082E5FE
:1005D00094E00E9461000E9413020E940202EFEF69
:1005E000F3ED20E3E150F0402040E1F700C00000CF
:1005F00068E271E082E594E00E9461000E940202DC
:100600008FEF93ECE9E081509040E040E1F700C0CB
:1006100000008AE08093690083E08DBB8CBB109260
:10062000680069E371E082E594E00E9461000E9445
:100630000202FFEF25EA8EE0F15020408040E1F712
:1006400000C0000014BC85E085BD83E686BD17BCF4
:1006500018BC81E080936E006AE471E082E594E06A
:100660000E9461000E9402029FEFE1EEF4E09150CF
:10067000E040F040E1F700C000006BE571E081E48C
:1006800094E00E9461006CE671E082E594E00E94D3
:1006900061000E9413020E94020287E00E9457003C
:1006A0002FEF80E792E0215080409040E1F700C0BA
:1006B00000000E94C8000E94D8008332E1F7D3E016
:1006C00080916304982F9F60909363048E7F8E6067
:1006D0000E948600E5E0EA95F1F700008091280489
:1006E000811120C03099BDC0FFEF29EF80E0F150AB
:1006F00020408040E1F700C00000309BFECF0E9408
:10070000CA0080912704E82FF0E0E050FF4F91E00D
:1007100090838F5F8093270480912704853011F4A4
:100720001092270480916304982F9F609093630434
:100730008D7F8D600E948600E5E0EA95F1F700006C
:1007400080912804811120C03099B9C0FFEF29EFB2
:1007500080E0F15020408040E1F700C00000309B75
:10076000FECF0E94CA0080912704E82FF0E0E050FD
:10077000FF4F94E090838F5F80932704809127043C
:10078000853011F41092270480916304982F9F60A4
:10079000909363048B7F8B600E948600E5E0EA956E
:1007A000F1F7000080912804811120C03099B5C074
:1007B000FFEF29EF80E0F15020408040E1F700C0DA
:1007C0000000309BFECF0E94CA0080912704E82FD2
:1007D000F0E0E050FF4F97E090838F5F8093270415
:1007E00080912704853011F41092270480916304CE
:1007F000982F9F6090936304877F87600E94860094
:10080000E5E0EA95F1F7000080912804811117C016
:100810003099B1C0FFEF29EF80E0F15020408040D7
:10082000E1F700C00000309BFECF0E94CA0010928A
:10083000270480912704853011F410922704E09159
:100840002804E83008F033C1F0E0E75DFB4F0C947A
:100850009A0B43054D05730589059F050F062E0666
:100860003C06319915C09FEFE9EFF0E09150E04070
:10087000F040E1F700C00000319BFECF0E94CA00AB
:1008800080912704E82FF0E0E050FF4F92E040CF46
:10089000329942CF2FEF89EF90E021508040904075
:1008A000E1F700C00000329BFECF0E94CA00809199
:1008B0002704E82FF0E0E050FF4FD0832ACF319992
:1008C00015C09FEFE9EFF0E09150E040F040E1F714
:1008D00000C00000319BFECF0E94CA008091270417
:1008E000E82FF0E0E050FF4F95E044CF329946CF3B
:1008F0002FEF89EF90E0215080409040E1F700C059
:100900000000329BFECF0E94CA0080912704E82F8E
:10091000F0E0E050FF4F96E02DCF319915C09FEFEA
:10092000E9EFF0E09150E040F040E1F700C0000056
:10093000319BFECF0E94CA0080912704E82FF0E08F
:10094000E050FF4F98E048CF32994ACF2FEF89EF20
:1009500090E0215080409040E1F700C00000329BC1
:10096000FECF0E94CA0080912704E82FF0E0E050FB
:10097000FF4F99E031CF319918C09FEFE9EFF0E0D8
:100980009150E040F040E1F700C00000319BFECF05
:100990000E94CA0080912704E82FF0E0E050FF4F4A
:1009A00010828F5F8093270444CF329942CF2FEF7C
:1009B00089EF90E0215080409040E1F700C00000B6
:1009C000329BFECF80914004843009F432CF809175
:1009D00027048430A1F510922704E0E0F1E0A5E3BC
:1009E000B4E091918D9198132ACF21E0E430F20781
:1009F000C1F784E0809328048EE180932D0481E088
:100A000080933E0463E074E081E494E00E9461001E
:100A100083E380934E0480E380934F0464E174E0A9
:100A200082E594E00E94610085E080933F048CE0C1
:100A30000E94DE010E9413020E940202FACE8091FF
:100A40002804823009F4F5CE1092270481E08093C7
:100A50002804D0932D0480933E046DE771E081E477
:100A600094E00E9461006EE871E082E594E00E94EB
:100A700061000E9413020E9402028CE00E94DE01CB
:100A8000D0933F04D6CE80914004811103C087E00B
:100A9000809328040E94C8001DC080912C0490916E
:100AA0002D04911112C0811110C0109228040E94CF
:100AB000D800C82F80910501882309F4EFC0109257
:100AC0000501CEEF10923E04ECC0823318F787E0A8
:100AD0000E9457000E94B4000E94B9000E94BE000C
:100AE0000E94C30012C080912D04811104C0809126
:100AF0002C048823D1F20E94C8000E94B4000E94F6
:100B0000B9000E94BE000E94A0000E9455002D98CE
:100B1000CECF80912D04811104C080912C048823B4
:100B200021F20E94C8000E94AF000E94B9000E94FA
:100B3000A5000E94C3002C980E945300B8CFC5E0C6
:100B4000C0933F0480912C0490912D0491112BC0EF
:100B5000811129C087E00E9457008FEF93EDE0E3F9
:100B600081509040E040E1F700C000000E94C800C2
:100B7000C09328048FE080932D0480933F046FE995
:100B800071E081E494E00E94610060EB71E082E535
:100B900094E00E9461000E9413020E9402028CE015
:100BA0000E94DE0184CF6AE00E948E0B80FF2EC07F
:100BB00087E00E9457000E94AF000E94A50080912C
:100BC0002B048823A9F08DE80E94DE0180912D047A
:100BD000CAE06C2F0E948E0B805D0E94ED01809117
:100BE0002D046C2F0E948E0B80E3890F0E94ED0173
:100BF00080913E04882339F080912C04823368F47C
:100C000088E00E94DE010E94B9006ACF0E94C800FD
:100C10000E94B4000E94BE00D2CF8CE0F2CF80913F
:100C20002D04811105C080912C04882309F43DCF47
:100C3000D0933F0480913E04882339F080912C04A6
:100C4000823350F48CE00E94DE010E94C8000E94B2
:100C5000AF000E94AA006BCF88E0F5CF87E00E942A
:100C600057000E94AF000E94AA000E94A5000E94A7
:100C7000A0000E94550060CF0E94C8000E94AF00F3
:100C80000E94B9000E94BE000E94C3002C980E94DE
:100C9000530080914004811108CF09CFCF3F09F064
:100CA00011CF80913E0481112AC0CF3F41F18AE0EB
:100CB00080933F048CE00E94DE018091400481110A
:100CC0008BC066E071E081E494E00E94610061EC19
:100CD00071E082E594E00E9461000E9413020E948C
:100CE0000202C13309F071C081E080934004809317
:100CF000050162ED71E082E594E00E9461004C998B
:100D0000DFCCFFEF23EC89E0F15020408040E1F799
:100D100000C000008CE00E94DE018AE080933F0466
:100D200061EE73E081E494E00E94610062EF73E0A1
:100D300082E594E00E9461000E9413020E94020278
:100D40000E94AF000E94AA000E94A5000E94A0007D
:100D50000E9455009FEFE9E6F8E19150E040F04035
:100D6000E1F700C000000E9453002FEF89E698E1F0
:100D7000215080409040E1F700C000002D98EFEF37
:100D8000F3ED20E3E150F0402040E1F700C0000027
:100D9000C2E04C99BBC487E00E9457008FE798E3FC
:100DA000E1E081509040E040E1F700C000000E9487
:100DB000C800FFE72BE888E0F15020408040E1F7D1
:100DC00000C00000C0933F04E4CFC23309F097CFC6
:100DD00088E00E94DE0193CF813009F061C010925B
:100DE00004018FE00E94DE0163EE71E081E494E093
:100DF0000E94610090ED9C0F9A30A8F580913D040F
:100E0000282F30E0843021F0F901EE5AFB4FC387E0
:100E1000275C3B4FF90190838F5F853009F1809308
:100E20003D0480913504805D80934D0480913604AB
:100E3000805D80934E0480913704805D80934F04E1
:100E400080913804805D809350040E9413020E94B8
:100E5000020282E0CA3209F052CF809340046EC091
:100E600010923D04DECFC332E1F680913D04843020
:100E7000C1F662ED71E082E594E00E94610080912C
:100E800039048093350480913A048093360480912C
:100E90003B048093370480913C0480933804C1CF95
:100EA000823009F061C380910401882329F01092F7
:100EB000400481E08093050164EF71E081E494E0F7
:100EC0000E9461002091300480913104280F332763
:100ED000331F80913204280F311D80913304820F1B
:100EE000932F911D892B49F08CE380934E0481E26E
:100EF00080934F048EE3809350048091340465E026
:100F000072E0882361F066E172E0813041F067E2CF
:100F100072E0823021F0833031F468E372E082E5E0
:100F200094E00E9461000E9413020E940202C133F9
:100F300009F4DACEC23331F4D093400481E08093D7
:100F40000501DDCECA3259F480913404815087FD09
:100F500003C080933404F2CFD0933404EFCFC33274
:100F600041F4809134048F5F84309CF310923404F8
:100F7000E5CFC33309F029C2109230041092310436
:100F80001092320481E080932E04FFEF29E688E17D
:100F9000F15020408040E1F700C0000069E472E0B9
:100FA00081E494E00E946100C0E010E034E0F32EA0
:100FB00043E2E42E5AE2D52ECC24C394F0922D04C1
:100FC0006AE572E082E594E00E9461001A3009F05F
:100FD000E4C0D09258040AE20E9413020E94020266
:100FE0000E94D8008017D9F080912B04882341F00B
:100FF0008BEC0E94DE0180912D04805D0E94ED014A
:1010000080912D048111ECCF80912C048111E8CFC7
:10101000CF5FC09230040E94CA000E94CA001F5FC6
:101020001C3061F66BE672E081E494E00E9461009E
:1010300010E084E0F82E93E2E92E2AE2D22EF0921C
:101040002D046AE572E082E594E00E9461001A30A6
:1010500009F0AEC0D09258040AE20E9413020E9426
:10106000020280916304982F9F60909363048E7FA7
:101070008E600E94860095E09A95F1F70000309905
:10108000A2C0EFEFF9EF20E0E150F0402040E1F79F
:1010900000C00000309BFECF0E94CA0081E308130D
:1010A00068C11F5F1C3059F610922A04109229045F
:1010B0006CE772E081E494E00E9461006DE872E008
:1010C00082E594E00E9461000E9413020E940202E5
:1010D00085E080932D048091290481111EC08091A8
:1010E0002B04882351F010922B048BEC0E94DE011C
:1010F00080912D04805D0E94ED0180912D0481116D
:10110000EACF80912C048111E6CFCF5F81E08093FC
:1011100032040E94CA000E94CA006CE772E081E4B7
:1011200094E00E9461006EE972E082E594E00E9422
:1011300061000E9413020E94020285E080932D0448
:1011400080912A0481111EC080912B04882351F0C4
:1011500010922B048BEC0E94DE0180912D04805DA7
:101160000E94ED0180912D048111EACF80912C0421
:101170008111E6CFCF5F81E0809332040E94CA00E4
:101180000E94CA0010922E0481E080930501809194
:101190002F04C80FC0932F04B2CD1B3021F4E0926E
:1011A000580403E219CF00E3010F0093580414CF51
:1011B0001B3021F4E092580403E24FCF00E3010F0B
:1011C000009358044ACF31990FC08FEF99EFE0E0B8
:1011D00081509040E040E1F700C00000319BFECF1D
:1011E0000E94CA0082E35BCF32990FC0FFEF29EF64
:1011F00080E0F15020408040E1F700C00000329BC9
:10120000FECF0E94CA0083E34ACF80916304982FE7
:101210009F60909363048D7F8D600E94860095E0AF
:101220009A95F1F7000030990FC0EFEFF9EF20E049
:10123000E150F0402040E1F700C00000309BFECFBD
:101240000E94CA0084E32BCF31990FC08FEF99EF32
:10125000E0E081509040E040E1F700C00000319BA9
:10126000FECF0E94CA0085E31ACF32990FC0FFEF6C
:1012700029EF80E0F15020408040E1F700C00000FD
:10128000329BFECF0E94CA0086E309CF809163049F
:10129000982F9F60909363048B7F8B600E948600E1
:1012A00095E09A95F1F7000030990FC0EFEFF9EF54
:1012B00020E0E150F0402040E1F700C00000309B0A
:1012C000FECF0E94CA0087E3EACE31990FC08FEFAC
:1012D00099EFE0E081509040E040E1F700C000006D
:1012E000319BFECF0E94CA0088E3D9CE32990FC04D
:1012F000FFEF29EF80E0F15020408040E1F700C08F
:101300000000329BFECF0E94CA0089E3C8CE8091C4
:101310006304982F9F6090936304877F87600E9487
:10132000860095E09A95F1F7000030990FC0EFEF35
:10133000F9EF20E0E150F0402040E1F700C000006C
:10134000309BFECF0E94CA008AE2A9CE31990FC01D
:101350008FEF99EFE0E081509040E040E1F700C06E
:101360000000319BFECF0E94CA0080E398CE329BE2
:101370001DC080912B04882341F08BEC0E94DE017C
:1013800080912D04805D0E94ED0180912D048111DA
:1013900068CE80912C04811164CECF5F81E0809370
:1013A00031040E94CA000E94CA007BCEFFEF29EFE1
:1013B00080E0F15020408040E1F700C00000329B07
:1013C000FECF0E94CA0083E26ACEC43309F0C5C0D2
:1013D0001092330481E080932E046FEA72E081E47E
:1013E00094E00E94610060EC72E082E594E00E946B
:1013F00061000E9413020E9402029FEFE1EEF4E0FE
:101400009150E040F040E1F700C000008DEC0E94F8
:10141000DE018EE20E94ED012FEF89EF90E0215076
:1014200080409040E1F700C000008EE20E94ED0194
:10143000EFEFF0E722E0E150F0402040E1F700C09C
:1014400000008EE20E94ED018FEF95EAEEE0815000
:101450009040E040E1F700C0000061ED72E081E4FF
:1014600094E00E94610061ED72E082E594E00E94E8
:1014700061000E9413020E94020280E80E94DE01C5
:10148000C0E18FEF0E94ED01FFEF20E782E0F15015
:1014900020408040E1F700C00000C15091F780EC8F
:1014A0000E94DE01C0E18FEF0E94ED019FEFE0E7B7
:1014B000F2E09150E040F040E1F700C00000C15080
:1014C00091F72FEF89E698E1215080409040E1F7B5
:1014D00000C0000062EE72E081E494E00E946100CE
:1014E00063EF72E082E594E00E9461000E94CA000E
:1014F0000E9402020E94130285E080932D0411E0F5
:101500000E94D800082F80912D0481111BC080916A
:101510002C04811117C0CF5F109330041093330453
:101520000E94CA000E94CA001093050180E00A329E
:1015300059F4CF5F81E080933304809305011092CA
:101540002E0425CE81E0F3CF033221F41092330430
:1015500081E0F3CF882399F3D3CFC53309F0CFCB04
:1015600085E08093400402CD8330A9F464E073E009
:1015700081E494E00E94610065E173E082E594E01B
:101580000E9461000E9413020E940202C33209F00D
:1015900060CC84E062CC843069F466E273E081E47C
:1015A00094E00E94610067E373E082E594E00E94AA
:1015B00061004BCC853009F0A2CBC33209F48FC057
:1015C000CA3209F49AC080913404811142C020913A
:1015D000300480913104280F3327331F8091320467
:1015E000280F311D80913304820F932F911D892B79
:1015F00089F468E473E081E494E00E94610069E5A5
:1016000073E082E594E00E9461000E9413020E9450
:10161000020275CB6AE673E081E494E00E94610007
:1016200069E573E082E594E00E9461000E94130284
:101630000E94020287E00E945700EFEFF9E628E1DE
:10164000E150F0402040E1F700C000000E94C800D7
:1016500056CB813011F56BE773E081E494E00E9492
:10166000610080913004811103C06CE873E0C9CF40
:101670006DE973E082E594E00E9461000E9413022C
:101680000E94020287E00E9457008FEF99E6E8E18E
:1016900081509040E040E1F7D7CF823049F46EEAC4
:1016A00073E081E494E00E94610080913104DBCF1B
:1016B000833049F46FEB73E081E494E00E946100B1
:1016C00080913204D0CF843009F019CB60ED73E003
:1016D00081E494E00E94610080913304C4CF81E0F2
:1016E00080930501809134048F5F85301CF48093D2
:1016F000340405CB1092340402CB81E080930501C1
:101700001092340482E080934004F9CA82E080930E
:10171000400481E0809305010C946003991B79E0FB
:1017200004C0991F961708F0961B881F7A95C9F771
:1017300080950895EE0FFF1F0590F491E02D099418
:04174000F894FFCF4B
:1017440001010101010120496E697469616C697AC2
:101754006174696F6E2000496E6974204C434420A3
:10176400737563636573730050696E436F6E666966
:10177400675375636365737300496E74657272753C
:1017840070745375636365737300496E6974546947
:101794006D65725375636365737300566973696F1E
:1017A4006E3A204265746120302E350020506C65FD
:1017B40061736520707265737320232000204E4F7F
:1017C400524D414C20524551554553542000204C14
:1017D4006F636B206F7220756E6C6F636B200020DB
:1017E4002020444F4F52204641494C2021202000C4
:1017F4005365637572697479206661696C656420E8
:1018040000312E496E69742020202020322E4F662C
:101814006600456E74657220636F64653A2020200B
:1018240020200041637469766520636F64653A2003
:10183400202020002020202020204D656E752020AF
:101844002020202000312E456469742020322E533C
:101854007472696374002020332E54657374206B92
:101864006579706164200020342E5465737420649B
:101874006973706C6179200020352E20496E666F83
:10188400726D6174696F6E200054455354204B454A
:10189400595020494E534944450050726573732092
:1018A400202E2E2E2E207365632000544553542081
:1018B4004B4559204F555453494445002020544525
:1018C40053542053574954434820202000556E6CEC
:1018D4006F636B20746573742020736563004C6FB1
:1018E400636B20746573742020202073656300206B
:1018F400205445535420444953504C41592020000E
:1019040053746172742074657374696E6720202047
:1019140000202020202020202020202020202020E3
:1019240020005072657373202A20696620657272E4
:101934006F7200456C736520707265737320232089
:10194400202020002020537472696374206D6F641A
:101954006520202000436F6E6669726D2070726589
:1019640073732023200020205354524943542020D1
:101974004D4F44452020002D2D2D2D2D2D2D2D2D69
:101984002D2D2D2D2D2D2D0053797374656D20690A
:101994006E204E4F524D414C00507265737320239C
:1019A40020746F2076696577200053797374656DB0
:1019B40020696E204552524F522000312E206B6513
:1019C4007970616420696E73696465004572797425
:1019D40068696E67206973206F6B617900205275A6
:1019E4006E2077697468204552524F522000322E7F
:1019F4006B6579706164206F757473696465003315
:101A04002E53776974636820636F6E74726F6C0011
:101A1400342E53797374656D20646973706C6179C5
:101A2400002054455354204F5045524154494F4E81
:101A34002000206F6E6C7920666F72207465737459
:101A440020200020454D455247454E43593A202019
:101A540020207300537769746368546F4C6F636B11
:061A6400206E6F77000008
:00000001FF
